:100000000C9459000C9481000C9481000C94810094
:100010000C9481000C9481000C9481000C9481005C
:100020000C9481000C9481000C9481000C9481004C
:100030000C9481000C9481000C9481000C9481003C
:100040000C9406060C9481000C949C090C94DF0916
:100050000C9481000C9481000C9481000C9481001C
:100060000C94D9040C9481000000000700020100E8
:100070000003040600000000000000000102040864
:100080001020408001020408102001020408102002
:10009000040404040404040402020202020203032E
:1000A0000303030300000000250028002B00F703D2
:1000B0009B0A11241FBECFEFD8E0DEBFCDBF11E0F9
:1000C000A0E0B1E0EEE8FAE102C005900D92A6339F
:1000D000B107D9F722E0A6E3B1E001C01D92A13D2E
:1000E000B207E1F710E0C2EBD0E004C02297FE01B6
:1000F0000E94410DCE3AD107C9F70E94F10A0C9433
:10010000450D0C940000DC01ED91FC910190F08113
:10011000E02D09940F931F93CF93DF938C01EB0194
:1001200060910001709101018EE591E00E94E2036F
:10013000B8018EE591E00E948300BE018EE591E05A
:100140000E94830061E08EE591E00E94E40381E07B
:1001500090E0DF91CF911F910F9108958CE090E096
:10016000909301018093000160E070E08AE090E0EC
:100170000E948A006FE070E08AE090E00E948A00AE
:1001800060E070E08AE090E00E948A0089E690E0FA
:10019000909301018093000160E470E084E290E0BC
:1001A0000E948A006CE870E085E290E00E948A007C
:1001B00062E070E086E290E00E948A0068E870E009
:1001C00087E290E00E948A006CE070E088E290E0B4
:1001D0000E948A006AE070E089E290E00E948A0052
:1001E00061E870E08AE290E00E948A0061E070E0DD
:1001F00084E690E00E948A0063E070E087E690E089
:100200000E948A0060E870E081E090E00E948A002D
:1002100064E070E084E390E00E948A0060E070E0B7
:1002200084E690E00E948A0060E070E08AE690E058
:100230000E948A0061E070E084E690E00E948A00FB
:1002400060E270E08AE690E00E948A0063E170E07C
:1002500084E390E00C948A0040E855E260E070E0AE
:1002600087E292E00E941A0A8EE591E00E94BF03A5
:1002700060E070E08BE690E00E948A000C94AE0093
:100280000F931F93CF93DF938C01EB0160910001DB
:10029000709101018EE591E00E94E203B8018EE5C4
:1002A00091E00E94830060E08EE591E00E94E4030B
:1002B000609100017091010121E030E041E050E0E7
:1002C0008EE591E00E94D6038EE591E00E94300316
:1002D000182F60910001709101018EE591E00E945C
:1002E000E203BE018EE591E00E94830060E08EE5AE
:1002F00091E00E94E403609100017091010121E00E
:1003000030E041E050E08EE591E00E94D6038EE5BA
:1003100091E00E943003982F8827810F911DDF9173
:10032000CF911F910F910895EF92FF920F931F931A
:10033000CF93DF9361E470E082E490E00E9440019B
:10034000BC01882777FD8095982F0E94020C20E041
:1003500030EF41E456E40E94FF0A20E030E04AEA30
:1003600053E40E94670BAB01BC01409336015093EC
:100370003701609338017093390122E030E087E261
:1003800092E00E94080962E071E087E292E00E9438
:1003900071076BE470E08AE490E00E94400132E56E
:1003A000E32E31E0F32EBC01882777FD8095982F4E
:1003B0000E94020CF70160837183828393836DE452
:1003C00070E08CE490E00E94400106E511E0BC0181
:1003D000882777FD8095982F0E94020CF801608392
:1003E0007183828393836FE470E08EE490E00E94D7
:1003F0004001CAE5D1E0BC01882777FD8095982FA0
:100400000E94020C688379838A839B83F701408171
:1004100051816281738122E030E087E292E00E94A4
:10042000080964E071E087E292E00E947107F80138
:10043000408151816281738122E030E087E292E065
:100440000E94080964E071E087E292E00E9471076F
:10045000488159816A817B8122E030E087E292E025
:100460000E94080962E071E087E292E00E94710751
:1004700063E470E084E490E00E9440014AE3E42EEB
:1004800041E0F42EBC01882777FD8095982F0E94CB
:10049000020CF701608371838283938365E470E0CB
:1004A00086E490E00E9440010EE311E0BC01882741
:1004B00077FD8095982F0E94020CF801608371836C
:1004C0008283938367E470E088E490E00E944001B7
:1004D000C2E4D1E0BC01882777FD8095982F0E9467
:1004E000020C688379838A839B83F7014081518161
:1004F0006281738122E030E087E292E00E94080985
:1005000064E071E087E292E00E947107F8014081A7
:1005100051816281738122E030E087E292E00E94A3
:10052000080964E071E087E292E00E947107488167
:1005300059816A817B8122E030E087E292E00E946B
:10054000080962E071E087E292E00E9471076BE3C4
:1005500070E08CE390E00E94400156E4E52E51E00B
:10056000F52EBC01882777FD8095982F0E94020CFC
:10057000F70160837183828393836DE370E08EE380
:1005800090E00E9440010AE411E0BC01882777FD59
:100590008095982F0E94020CF801608371838283FA
:1005A00093836FE370E080E490E00E944001CEE42A
:1005B000D1E0BC01882777FD8095982F0E94020C1E
:1005C000688379838A839B83F701408151816281AB
:1005D000738122E030E087E292E00E94080964E043
:1005E00071E087E292E00E947107F8014081518139
:1005F0006281738122E030E087E292E00E94080984
:1006000064E071E087E292E00E94710748815981BD
:100610006A817B8122E030E087E292E00E94080953
:1006200062E071E087E292E00E94710766E071E0AB
:1006300087E292E00E94710764E670E080E090E05B
:10064000DF91CF911F910F91FF90EF900C94730663
:1006500080918E0190E020918F01821B9109089575
:1006600020918F0180918E01281750F4E22FF0E045
:10067000E057FE4F808190E02F5F20938F01089517
:100680008FEF9FEF0895E0918F0180918E01E81721
:1006900030F4F0E0E057FE4F808190E008958FEF56
:1006A0009FEF08950895CF92DF92EF92FF920F93FC
:1006B0001F93CF93DF937C01CB018A0120916A01C4
:1006C000222389F0EB016B01C40ED51ECC15DD058C
:1006D00069F06991D701ED91FC910190F081E02DD5
:1006E000C7010995F3CF642F0E94B004C801DF91C0
:1006F000CF911F910F91FF90EF90DF90CF900895D1
:10070000CF93DF931F92CDB7DEB7698320916A0143
:100710002223D1F020916B01203240F021E030E023
:10072000FC013383228380E090E015C080916C014E
:10073000E82FF0E0E359FE4F998190838F5F80931B
:100740006C0180936B0105C061E0CE0101960E94AF
:10075000B00481E090E00F90DF91CF910895FC010B
:100760001382128248EE53E060E070E044835583C8
:10077000668377838CE091E0918380830895109263
:100780008F0110928E0110926C0110926B010C94EB
:10079000FB03862F413208F040E260E971E00E94DD
:1007A000190410928F0180938E0108950C94C9034F
:1007B00081E080936A0160938D0110926C01109228
:1007C0006B0108950C94D8030F93062F21E04091FC
:1007D0006B016DE671E080918D010E945D041092C5
:1007E0006C0110926B0110926A010F9108958EE5D1
:1007F00091E00C94AF0310921D0281E080931B02E4
:1008000010921A0261E082E10E94FD0661E083E13C
:100810000E94FD06E9EBF0E080818E7F808380817D
:100820008D7F808388E48093B80085E48093BC004A
:100830000895413208F03FC090911D029111FCCF04
:1008400091E090931D0220931B022FEF2093B001A3
:100850001092F501240F2093F40190931C029091C3
:100860001C02880F892B80931C0280911A02813010
:1008700041F410921A0280911C028093BB0085EC17
:1008800001C085EE8093BC0080911D028130E1F3B0
:100890008091F501841710F44091F50126EF31E0C5
:1008A000FB01D9018A2F821B841718F48D91819343
:1008B000F9CF842F089580E008950F93413208F016
:1008C00046C090911D029111FCCF92E090931D02C1
:1008D00000931B029FEF9093B0011092F50140939B
:1008E000F401FB0166EF71E0DB019A2F961B941770
:1008F00018F491919D93F9CF10921C0290911C02D3
:10090000880F892B80931C0280911A02813041F458
:1009100010921A0280911C028093BB0085EC01C0EA
:1009200085EE8093BC00222321F080911D0282304D
:10093000E1F38091B0018F3F61F08091B00180328E
:1009400051F08091B001803341F483E007C081E031
:1009500005C080E003C082E001C084E00F910895EB
:10096000613298F420911D02243089F46093D20101
:10097000FC0184ED91E0DC012A2F281B261718F4D6
:1009800021912D93F9CF80E0089581E0089582E0D0
:10099000089585ED8093BC008091BC0084FDFCCF60
:1009A00010921D02089585EC8093BC0010921D02E8
:1009B00008951F920F920FB60F9211242F933F9319
:1009C0004F935F936F937F938F939F93AF93BF9357
:1009D000EF93FF938091B900887F803609F49CC023
:1009E00068F5883209F45BC090F4803109F454C092
:1009F00038F4882309F4F5C0883009F44DC0F5C0F7
:100A0000883109F44CC0803209F45DC0EEC08034F6
:100A100009F468C048F4803309F455C0883309F0FC
:100A2000E4C08093B001A8C0803509F44FC0883578
:100A300009F45DC0883409F0D8C0D5C0883909F4FC
:100A4000C6C0A8F4883709F467C038F4883609F4BA
:100A500063C0803709F460C0C8C0883809F4B7C0E3
:100A6000803909F45FC0803809F0BFC05BC0803BAB
:100A700009F485C038F4803A09F466C0883A09F46C
:100A80007EC0B3C0803C09F4A6C0883C09F4A3C072
:100A9000883B09F489C0A9C080911C0210C09091C4
:100AA000F5018091F401981770F5E091F50181E06E
:100AB0008E0F8093F501F0E0EA50FE4F8081809325
:100AC000BB0085EC85C08093B0018DC0E091F5013D
:100AD00081E08E0F8093F5018091BB00F0E0EA5039
:100AE000FE4F80839091F5018091F4016DC0E091FB
:100AF000F50181E08E0F8093F5018091BB00F0E05D
:100B0000EA50FE4F808380911B0281116CC081E00E
:100B100080931A0284EA60C083E080931D021092E1
:100B2000B101CFCF8091B101803208F050C0E09187
:100B3000B10181E08E0F8093B1018091BB00F0E0A4
:100B4000EE54FE4F8083BDCF8091B101803230F4EE
:100B5000E091B101F0E0EE54FE4F10820E94C90412
:100B60006091B10170E0E0911602F091170282EB02
:100B700091E009951092B1010E94D30436C084E03F
:100B800080931D021092D3011092D201E0911802BD
:100B9000F091190209958091D201811105C081E07F
:100BA0008093D2011092D401E091D30181E08E0FA5
:100BB0008093D301F0E0EC52FE4F80818093BB0024
:100BC0009091D3018091D201981708F47ACF85E8EB
:100BD0008093BC000AC085EC8093BC0010921D027B
:100BE00004C01092B0010E94C904FF91EF91BF911F
:100BF000AF919F918F917F916F915F914F913F91B5
:100C00002F910F900FBE0F901F9018951F920F926B
:100C10000FB60F9211242F933F938F939F93AF930F
:100C2000BF9380911F0290912002A0912102B09168
:100C3000220230911E0223E0230F2D3720F401966B
:100C4000A11DB11D05C026E8230F0296A11DB11DEF
:100C500020931E0280931F0290932002A0932102F2
:100C6000B09322028091230290912402A091250248
:100C7000B09126020196A11DB11D8093230290938D
:100C80002402A0932502B0932602BF91AF919F91B9
:100C90008F913F912F910F900FBE0F901F9018953D
:100CA0003FB7F8948091230290912402A0912502ED
:100CB000B091260226B5A89B05C02F3F19F00196DA
:100CC000A11DB11D3FBF6627782F892F9A2F620F74
:100CD000711D811D911D42E0660F771F881F991FAE
:100CE0004A95D1F70895CF92DF92EF92FF92CF937A
:100CF000DF936B017C010E945006EB01C114D1040B
:100D0000E104F10479F00E9450066C1B7D0B683EF3
:100D10007340A0F381E0C81AD108E108F108C85176
:100D2000DC4FECCFDF91CF91FF90EF90DF90CF9031
:100D30000895789484B5826084BD84B5816084BD53
:100D400085B5826085BD85B5816085BDEEE6F0E044
:100D5000808181608083E1E8F0E0108280818260A0
:100D60008083808181608083E0E8F0E08081816021
:100D70008083E1EBF0E0808184608083E0EBF0E051
:100D8000808181608083EAE7F0E0808184608083F5
:100D9000808182608083808181608083808180689F
:100DA00080831092C1000895833081F028F481304F
:100DB00099F08230A1F008958630A9F08730B9F01B
:100DC0008430D1F4809180008F7D03C080918000B9
:100DD0008F7780938000089584B58F7702C084B5A3
:100DE0008F7D84BD08958091B0008F7703C080917E
:100DF000B0008F7D8093B00008950F931F93CF9321
:100E0000DF931F92CDB7DEB7282F30E0F901E85904
:100E1000FF4F8491F901E458FF4F1491F901E05715
:100E2000FF4F04910023C9F0882321F069830E94B9
:100E3000D4066981E02FF0E0EE0FFF1FEC55FF4F65
:100E4000A591B4919FB7F8948C91611103C010954E
:100E5000812301C0812B8C939FBF0F90DF91CF9195
:100E60001F910F910895CF92DF92EF92FF920F930F
:100E70001F93CF93DF936C017A01EB01E60EF71E0F
:100E800000E010E0CE15DF0561F06991D601ED912B
:100E9000FC910190F081E02DC6010995080F191F02
:100EA000F1CFC801DF91CF911F910F91FF90EF908B
:100EB000DF90CF9008956115710581F0DB010D90F1
:100EC0000020E9F7AD0141505109461B570BDC01E9
:100ED000ED91FC910280F381E02D099480E090E097
:100EE00008950C945B07DC01ED91FC910190F08179
:100EF000E02D09948F929F92AF92BF92CF92DF9292
:100F0000EF92FF920F931F93CF93DF93CDB7DEB78E
:100F1000A1970FB6F894DEBF0FBECDBF7C01C42EE3
:100F2000E52FCB01D22E19A221E02D1510F02AE0D9
:100F3000D22E8E010F5D1F4F8D2C912CA12CB12C28
:100F40006C2D7E2FA50194010E941D0D8C2DD29E2B
:100F500080191124015011098A3014F4805D01C0F8
:100F6000895CF8018083211531054105510521F087
:100F7000C22EE32FCA01E4CFB801C7010E945B076C
:100F8000A1960FB6F894DEBF0FBECDBFDF91CF9113
:100F90001F910F91FF90EF90DF90CF90BF90AF9097
:100FA0009F908F900895CF92DF92EF92FF920F93D0
:100FB0001F93CF93DF93EC016A017B01211531056B
:100FC00079F4E881F9810190F081E02D642FDF91BF
:100FD000CF911F910F91FF90EF90DF90CF900994E8
:100FE0002A303105E9F477FF1AC06DE20E947307D9
:100FF0008C0144275527BA014C195D096E097F09F8
:101000002AE0CE010E947A07800F911FDF91CF91D5
:101010001F910F91FF90EF90DF90CF9008952AE0FD
:10102000B701A601CE01DF91CF911F910F91FF90E3
:10103000EF90DF90CF900C947A074F925F926F926F
:101040007F928F929F92AF92BF92CF92DF92EF9258
:10105000FF920F931F93CF93DF93EC016A017B0103
:10106000B22E9A01AB01C701B6010E94190D882367
:1010700019F068E171E027C026013701E89477F89C
:101080002FEF3FEF4FE75FE7C301B2010E94190D59
:1010900081110DC02FEF3FEF4FE75FE7C301B201B2
:1010A0000E94630B18161CF46CE171E00CC02FEF6A
:1010B0003FEF4FE75FE4C701B6010E94B20C18167C
:1010C000ACF460E271E0CE01DF91CF911F910F91FE
:1010D000FF90EF90DF90CF90BF90AF909F908F9058
:1010E0007F906F905F904F900C945B072FEF3FEFD6
:1010F0004FE75FECC701B6010E94630B87FDE1CFAC
:1011000020E030E0A901C701B6010E94630B87FF10
:101110000AC06DE2CE010E9473078C01F7FAF094C9
:10112000F7F8F09402C000E010E0A12C60E070E05D
:1011300080E09FE3AB1441F020E030E040E251E476
:101140000E94670BA394F6CF9B01AC01C701B601C7
:101150000E94FF0A6B017C010E94D40B2B013C0111
:101160000E94000C9B01AC01C701B6010E94FE0A5F
:101170006B017C012AE0B301A201CE010E947A0733
:10118000080F191FBB2039F064E271E0CE010E9404
:101190005B07080F191F7B2C772041F120E030E01E
:1011A00040E251E4C701B6010E94B60C6B017C011C
:1011B0000E94CF0B4B01AA2497FCA094BA2C2AE0E2
:1011C00030E0B501A401CE010E94D307080F191F1A
:1011D000C501B4010E94020C9B01AC01C701B6011C
:1011E0000E94FE0A6B017C017A94D6CFC801DF9180
:1011F000CF911F910F91FF90EF90DF90CF90BF9014
:10120000AF909F908F907F906F905F904F900895D8
:101210000C941D08FC0124853585F901E05CFF4F25
:1012200080819181329620813181821B930B8F7353
:1012300099270895FC0184859585FC01E05CFF4FAA
:10124000408151813296208131814217530741F00C
:101250000190F081E02DE80FF91F808190E0089562
:101260008FEF9FEF0895FC0184859585FC01E05C7C
:10127000FF4F4081518132962081318142175307BF
:1012800079F0A081B181A80FB91F8C9120813181A3
:101290002F5F3F4F2F7333273183208390E00895D2
:1012A0008FEF9FEF0895FC0181A1882329F0A48985
:1012B000B5898C9186FFFBCF11A20895CF93DF9360
:1012C000FC0126853785D901A05CBF4F8D919C918B
:1012D000119701968F739927E901CE5BDF4F488103
:1012E000598184179507D9F30D90BC91A02DA20FB9
:1012F000B31F6C93A685B785A05CBF4F11969C93D6
:101300008E93A689B7892C9181E090E0078C02C06A
:10131000880F991F0A94E2F7282B2C9381E081A370
:101320000488F589E02D80818064808381E090E0ED
:10133000DF91CF91089508951F920F920FB60F92EB
:1013400011242F933F934F938F939F93EF93FF938A
:101350008091C00082FD1CC04091C6008091CD02EA
:101360009091CE0201968F7399272091CF023091F0
:10137000D0028217930771F0E091CD02F091CE0276
:10138000E357FD4F40839093CE028093CD0202C07D
:101390008091C600FF91EF919F918F914F913F9166
:1013A0002F910F900FBE0F901F90189587E292E03B
:1013B0000E940A09892B11F00C949B0908951F9231
:1013C0000F920FB60F9211242F933F938F939F93F9
:1013D000EF93FF932091890230918A0280918B02D2
:1013E00090918C022817390731F48091C1008F7DCC
:1013F0008093C10014C0E0918B02F0918C02E75BF6
:10140000FD4F208180918B0290918C0201968F7309
:10141000992790938C0280938B022093C600FF91B2
:10142000EF919F918F913F912F910F900FBE0F9051
:101430001F901895CF92DF92EF92FF92CF93DF9398
:10144000EC016A017B01411581EE580761057105C8
:10145000F9F0EC89FD8981E090E008A002C0880FD6
:10146000991F0A94E2F7808360E079E08DE390E0D1
:10147000A70196010E941D0D215031094109510912
:101480005695479537952795211580E1380798F0AF
:10149000EC89FD89108260E874E88EE190E0A70194
:1014A00096010E941D0D215031094109510956959F
:1014B000479537952795E889F9893083EA89FB892B
:1014C000208319A2EE89FF89408181E090E09C0190
:1014D0000C8C02C0220F331F0A94E2F7422B408388
:1014E000EE89FF8940819C010D8C02C0220F331FC1
:1014F0000A94E2F7422B4083EE89FF8940819C01E8
:101500000E8C02C0220F331F0A94E2F7422B408355
:10151000EE89FF8920810F8C02C0880F991F0A94E1
:10152000E2F7809582238083DF91CF91FF90EF9047
:10153000DF90CF90089510922A021092290288EE2F
:1015400093E0A0E0B0E080932B0290932C02A09354
:101550002D02B0932E028AE291E0909328028093AC
:1015600027028DE892E0909334028093330289E45D
:1015700092E0909336028093350285EC90E0909350
:1015800038028093370284EC90E090933A02809383
:10159000390280EC90E090933C0280933B0281EC16
:1015A00090E090933E0280933D0282EC90E0909315
:1015B000400280933F0286EC90E090934202809339
:1015C000410284E08093430283E08093440287E0F9
:1015D0008093450285E08093460281E08093470234
:1015E00008950E9499060E942C01C6EDD9E00E9440
:1015F00094012097E1F30E94D609F9CF5058BB27F8
:10160000AA270ED075C166D130F06BD120F031F42D
:101610009F3F11F41EF45BC10EF4E095E7FB51C14E
:10162000E92F77D180F3BA1762077307840795070C
:1016300018F071F49EF58FC10EF4E0950B2EBA2FC1
:10164000A02D0B01B90190010C01CA01A0011124C8
:10165000FF27591B99F0593F50F4503E68F11A1674
:10166000F040A22F232F342F4427585FF3CF469505
:1016700037952795A795F0405395C9F77EF41F1627
:10168000BA0B620B730B840BBAF09150A1F0FF0FF1
:10169000BB1F661F771F881FC2F70EC0BA0F621FDD
:1016A000731F841F48F4879577956795B795F795CD
:1016B0009E3F08F0B3CF9395880F08F09927EE0F5F
:1016C000979587950895D9D008F481E008950CD0B6
:1016D0000FC107D140F0FED030F021F45F3F19F088
:1016E000F0C0511139C1F3C014D198F39923C9F353
:1016F0005523B1F3951B550BBB27AA276217730718
:10170000840738F09F5F5F4F220F331F441FAA1FCB
:10171000A9F333D00E2E3AF0E0E830D0915050408B
:10172000E695001CCAF729D0FE2F27D0660F771F39
:10173000881FBB1F261737074807AB07B0E809F01B
:10174000BB0B802DBF01FF2793585F4F2AF09E3FB0
:10175000510568F0B6C000C15F3FECF3983EDCF382
:10176000869577956795B795F7959F5FC9F7880F29
:10177000911D9695879597F90895E1E0660F771F7B
:10178000881FBB1F621773078407BA0720F0621B0C
:10179000730B840BBA0BEE1F88F7E095089504D005
:1017A0006894B111D9C00895BCD088F09F5790F0CB
:1017B000B92F9927B751A0F0D1F0660F771F881F76
:1017C000991F1AF0BA95C9F712C0B13081F0C3D091
:1017D000B1E00895C0C0672F782F8827B85F39F02F
:1017E000B93FCCF3869577956795B395D9F73EF4D5
:1017F00090958095709561957F4F8F4F9F4F08957D
:10180000E89409C097FB3EF490958095709561959A
:101810007F4F8F4F9F4F9923A9F0F92F96E9BB2750
:101820009395F695879577956795B795F111F8CFCC
:10183000FAF4BB0F11F460FF1BC06F5F7F4F8F4F37
:101840009F4F16C0882311F096E911C0772321F02D
:101850009EE8872F762F05C0662371F096E8862FC5
:1018600070E060E02AF09A95660F771F881FDAF71C
:10187000880F9695879597F90895990F0008550F49
:10188000AA0BE0E8FEEF16161706E807F907C0F006
:1018900012161306E407F50798F0621B730B840B0E
:1018A000950B39F40A2661F0232B242B252B21F4E8
:1018B00008950A2609F4A140A6958FEF811D811D88
:1018C000089597F99F6780E870E060E008959FEFC2
:1018D00080EC089500240A941616170618060906C7
:1018E000089500240A941216130614060506089596
:1018F000092E0394000C11F4882352F0BB0F40F41E
:10190000BF2B11F460FF04C06F5F7F4F8F4F9F4F5D
:10191000089557FD9058440F551F59F05F3F71F0DF
:101920004795880F97FB991F61F09F3F79F0879546
:101930000895121613061406551FF2CF4695F1DFCF
:1019400008C0161617061806991FF1CF869571055F
:10195000610508940895E894BB2766277727CB0193
:1019600097F908958ADF08F48FEF08950BD0C0CF60
:10197000B1DF28F0B6DF18F0952309F0A2CFA7CF8A
:101980001124EACFC6DFA0F3959FD1F3950F50E065
:10199000551F629FF001729FBB27F00DB11D639F21
:1019A000AA27F00DB11DAA1F649F6627B00DA11DC7
:1019B000661F829F2227B00DA11D621F739FB00D6D
:1019C000A11D621F839FA00D611D221F749F3327DD
:1019D000A00D611D231F849F600D211D822F762F76
:1019E0006A2F11249F5750408AF0E1F088234AF073
:1019F000EE0FFF1FBB1F661F771F881F91505040BF
:101A0000A9F79E3F510570F05CCFA6CF5F3FECF386
:101A1000983EDCF3869577956795B795F795E795AA
:101A20009F5FC1F7FE2B880F911D9695879597F9BB
:101A3000089523DF880B990B0895A1E21A2EAA1BA3
:101A4000BB1BFD010DC0AA1FBB1FEE1FFF1FA2176E
:101A5000B307E407F50720F0A21BB30BE40BF50B6B
:101A6000661F771F881F991F1A9469F760957095F4
:101A7000809590959B01AC01BD01CF010895EE0FBB
:0E1A8000FF1F0590F491E02D0994F894FFCF1C
:101A8E00690020002C000A000000000080035303B0
:101A9E0028033003430352036E616E00696E6600C5
:101AAE006F7666002E00000000005E0933070A09FB
:061ABE0033091A09530967
:00000001FF
