:100000000C945E000C9486000C9486000C94860080
:100010000C9486000C9486000C9486000C94860048
:100020000C9486000C9486000C9486000C94FE00C0
:100030000C9486000C9486000C9486000C94860028
:100040000C94EB060C9486000C9489050C94CC055A
:100050000C9486000C9486000C9486000C94860008
:100060000C9486000C94860000000007000201003A
:100070000003040600000000000000000102040864
:100080001020408001020408102001020408102002
:10009000040404040404040402020202020203032E
:1000A0000303030300000000250028002B000000CC
:1000B0000000240027002A00A400880611241FBE87
:1000C000CFEFD8E0DEBFCDBF11E0A0E0B1E0EEEDB4
:1000D000FFE002C005900D92AC31B107D9F721E0E5
:1000E000ACE1B1E001C01D92AC3FB207E1F710E016
:1000F000CCEBD0E004C02297FE010E94DA07C83B97
:10010000D107C9F70E94DE060C94ED070C9400009D
:1001100063E070E080E291E00E94540260911C0173
:1001200070911D0180E291E00E948D0240E855E24D
:1001300060E070E089E491E00E94070666E071E00B
:1001400089E491E00C942A0480E291E00C94BA01D5
:1001500089E491E00E94F704892BC1F189E491E0E0
:100160000E942005803374F18A33BCF0833751F547
:1001700060911E0170911F0170931D0160931C011D
:1001800081E090E090930501809304014AE050E003
:1001900089E491E00E94DF0415C040911E01509156
:1001A0001F019AE0949F9001959F300D112499278B
:1001B00087FD9095C097280F391F30931F0120931A
:1001C0001E01089510921F0110921E0108950E94B1
:1001D000A8008091040190910501019671F0609151
:1001E0001C0170911D0180E291E00E948D028FEF51
:1001F0009FEF909305018093040108951F920F9241
:100200000FB60F9211242F933F934F935F936F93E9
:100210007F938F939F93AF93BF93EF93FF938091BF
:10022000240187FF05C010928500109284001AC037
:1002300020912401332727FD30958091230190E000
:10024000281739077CF480912401992787FD909520
:10025000FC01EE0FFF1FE80FF91FEB5DFE4F8081E1
:1002600086FD15C0809124018F5F80932401209129
:100270002401332727FD30958091230190E0281732
:100280003907BCF4809124018C305CF112C080915C
:100290002401992787FD9095FC01EE0FFF1FE80FC1
:1002A000F91FEB5DFE4F808160E08F730E94540365
:1002B000D9CF8091840090918500049680349C4928
:1002C00018F480E49CE905C0809184009091850039
:1002D000049690938900809388008FEF8093240187
:1002E00038C08091840090918500209124013327AB
:1002F00027FD3095F901EE0FFF1FE20FF31FEB5DB5
:10030000FE4F21813281820F931F90938900809349
:10031000880080912401992787FD9095FC01EE0FBC
:10032000FF1FE80FF91FEB5DFE4F808186FF11C0B4
:1003300080912401992787FD9095FC01EE0FFF1F06
:10034000E80FF91FEB5DFE4F808161E08F730E9423
:100350005403FF91EF91BF91AF919F918F917F9146
:100360006F915F914F913F912F910F900FBE0F9022
:100370001F901895209123012C30A0F431E0320F0A
:1003800030932301FC012083822F90E0FC01EE0FCB
:10039000FF1FE80FF91FEB5DFE4F88EB9BE0928398
:1003A000818308952FEFFC0120830895DF92EF925F
:1003B000FF920F931F93CF93DF93EC01D62E7A0118
:1003C000890188818C3008F066C061E08D2D0E9423
:1003D0001B038881A82FB0E0FD01EE0FFF1FEA0F7D
:1003E000FB1FEB5DFE4F2D2D2F739081907C922B88
:1003F000908360E272E06E197F0977FF02C06D5F43
:100400007F4F7595679575956795698340E659E0C7
:10041000401B510B57FF02C04D5F5F4F55954795ED
:10042000559547954A836CE00E9480079CE0899F20
:10043000B001112420E030E0A901460F571FFA0156
:10044000EE0FFF1FE40FF51FEB5DFE4F908196FD51
:1004500016C02F5F3F4F2C30310571F781110FC04F
:100460001092800082E080938100109285001092AB
:100470008400B19A80916F00826080936F008881C0
:1004800090E0FC01EE0FFF1FE80FF91FEB5DFE4F40
:100490008081806480838881DF91CF911F910F914B
:1004A000FF90EF90DF90089520E639E040E252E0BF
:1004B0000C94D601FC0180818C3070F5918128E884
:1004C00030E0291B310997FD3395220F331F220F8E
:1004D000331F621773077CF0928128E532E0291BF5
:1004E000310997FD3395220F331F220F331F6217F7
:1004F00073070CF49B014FB7F89490E0FC01EE0FEA
:10050000FF1FE80FF91FEB5DFE4F22503109220F4C
:10051000331F328321834FBF08954F925F926F92B2
:100520007F92AF92BF92CF92DF92EF92FF920F93A2
:100530001F93CF93DF93EC01603282E078070CF0D9
:1005400040C077FD06C0653B71052CF064EB70E0A0
:1005500002C060E070E0898128E830E0281B3109A2
:1005600087FD3395220F331F220F331F5901CC24EF
:10057000B7FCC094DC2C882777FD8095982F2A81C2
:1005800048E552E0421B510927FD5395440F551F82
:10059000440F551F2A01662457FC6094762C7F92E5
:1005A0006F925F924F9214EBE12EF12C00E010E07D
:1005B00020E030E0A9010E948A030F900F900F9075
:1005C0000F90CE01DF91CF911F910F91FF90EF908F
:1005D000DF90CF90BF90AF907F906F905F904F90E3
:1005E0000C945A02833081F028F4813099F08230E3
:1005F000A1F008958630A9F08730B9F08430D1F4A5
:10060000809180008F7D03C0809180008F778093E0
:100610008000089584B58F7702C084B58F7D84BD36
:1006200008958091B0008F7703C08091B0008F7DD6
:100630008093B0000895CF93DF9390E0FC01E458DD
:10064000FF4F2491FC01E057FF4F8491882349F12B
:1006500090E0880F991FFC01E255FF4FA591B491DE
:100660008C559F4FFC01C591D4919FB7611108C073
:10067000F8948C91209582238C93888182230AC0E0
:10068000623051F4F8948C91322F309583238C93FF
:100690008881822B888304C0F8948C91822B8C9360
:1006A0009FBFDF91CF9108950F931F93CF93DF9357
:1006B0001F92CDB7DEB7282F30E0F901E859FF4F80
:1006C0008491F901E458FF4F1491F901E057FF4F6D
:1006D00004910023C9F0882321F069830E94F2026B
:1006E0006981E02FF0E0EE0FFF1FEC55FF4FA59161
:1006F000B4919FB7F8948C91611103C01095812338
:1007000001C0812B8C939FBF0F90DF91CF911F91E0
:100710000F9108954F925F926F927F92AF92BF9226
:10072000CF92DF92EF92FF920F931F93CF93DF93BD
:10073000CDB7DEB729013A01621B730B840B950B11
:1007400029893A894B895C892A193B094C095D0939
:10075000298B3A8B4B8B5C8B9B01AC0169897A8925
:100760008B899C890E947007E418F508060917090F
:10077000A80197010E94AE072A0D3B1D4C1D5D1D6F
:10078000CA01B901DF91CF911F910F91FF90EF90B6
:10079000DF90CF90BF90AF907F906F905F904F9021
:1007A0000895CF92DF92EF92FF920F931F93CF9312
:1007B000DF936C017A01EB01E60EF71E00E010E01A
:1007C000CE15DF0561F06991D601ED91FC910190A4
:1007D000F081E02DC6010995080F191FF1CFC8015E
:1007E000DF91CF911F910F91FF90EF90DF90CF900D
:1007F00008956115710581F0DB010D900020E9F786
:10080000AD0141505109461B570BDC01ED91FC91A4
:100810000280F381E02D099480E090E00895DC01EE
:10082000ED91FC910190F081E02D09940F931F93BD
:10083000CF93DF93EC016DE00E940F048C016AE01E
:10084000CE010E940F04800F911FDF91CF911F9165
:100850000F9108950F931F93CF93DF93EC010E94A4
:10086000F9038C01CE010E941604800F911FDF91C5
:10087000CF911F910F9108958F929F92AF92BF9247
:10088000CF92DF92EF92FF920F931F93CF93DF935C
:10089000CDB7DEB7A1970FB6F894DEBF0FBECDBFC0
:1008A0007C01C42EE52FCB01D22E19A221E02D15FB
:1008B00010F02AE0D22E8E010F5D1F4F8D2C912C4F
:1008C000A12CB12C6C2D7E2FA50194010E948C07C8
:1008D0008C2DD29E80191124015011098A3014F4F4
:1008E000805D01C0895CF8018083211531054105D7
:1008F000510521F0C22EE32FCA01E4CFB801C70190
:100900000E94F903A1960FB6F894DEBF0FBECDBFCB
:10091000DF91CF911F910F91FF90EF90DF90CF90DB
:10092000BF90AF909F908F900895CF92DF92EF92FB
:10093000FF920F931F93CF93DF93EC016A017B012A
:100940002115310579F4E881F9810190F081E02DDC
:10095000642FDF91CF911F910F91FF90EF90DF9067
:10096000CF9009942A303105E9F477FF1AC06DE27F
:100970000E940F048C0144275527BA014C195D09C8
:100980006E097F092AE0CE010E943C04800F911F6E
:10099000DF91CF911F910F91FF90EF90DF90CF905B
:1009A00008952AE0B701A601CE01DF91CF911F91F2
:1009B0000F91FF90EF90DF90CF900C943C040F9339
:1009C0001F93CF93DF93EC019A01AB01662757FD8C
:1009D0006095762F0E9495048C01CE010E9416042A
:1009E000800F911FDF91CF911F910F910895FC010E
:1009F00024853585F901E05CFF4F80819181329635
:100A000020813181821B930B8F7399270895FC01FC
:100A100084859585FC01E05CFF4F408151813296D1
:100A2000208131814217530741F00190F081E02D80
:100A3000E80FF91F808190E008958FEF9FEF0895F0
:100A4000FC0184859585FC01E05CFF4F408151816C
:100A50003296208131814217530779F0A081B1810C
:100A6000A80FB91F8C91208131812F5F3F4F2F73C9
:100A700033273183208390E008958FEF9FEF08950F
:100A8000FC0181A1882329F0A489B5898C9186FF76
:100A9000FBCF11A20895CF93DF93FC012685378504
:100AA000D901A05CBF4F8D919C91119701968F73D6
:100AB0009927E901CE5BDF4F48815981841795075B
:100AC000D9F30D90BC91A02DA20FB31F6C93A685F6
:100AD000B785A05CBF4F11969C938E93A689B7896A
:100AE0002C9181E090E0078C02C0880F991F0A9436
:100AF000E2F7282B2C9381E081A30488F589E02D6F
:100B000080818064808381E090E0DF91CF910895BF
:100B100008951F920F920FB60F9211242F933F93B7
:100B20004F938F939F93EF93FF938091C00082FD2B
:100B30001CC04091C6008091EF019091F001019698
:100B40008F7399272091F1013091F2018217930759
:100B500071F0E091EF01F091F001E155FE4F40831B
:100B60009093F0018093EF0102C08091C600FF9145
:100B7000EF919F918F914F913F912F910F900FBEC9
:100B80000F901F90189589E491E00E94F704892B3B
:100B900011F00C94880508951F920F920FB60F92D2
:100BA00011242F933F938F939F93EF93FF93209163
:100BB000AB013091AC018091AD019091AE0128174D
:100BC000390731F48091C1008F7D8093C10014C03A
:100BD000E091AD01F091AE01E559FE4F2081809189
:100BE000AD019091AE0101968F7399279093AE015C
:100BF0008093AD012093C600FF91EF919F918F915B
:100C00003F912F910F900FBE0F901F901895CF928C
:100C1000DF92EF92FF92CF93DF93EC016A017B01A9
:100C2000411581EE580761057105F9F0EC89FD89E0
:100C300081E090E008A002C0880F991F0A94E2F7B3
:100C4000808360E079E08DE390E0A70196010E9447
:100C50008C0721503109410951095695479537951F
:100C60002795211580E1380798F0EC89FD891082DD
:100C700060E874E88EE190E0A70196010E948C077D
:100C800021503109410951095695479537952795C6
:100C9000E889F9893083EA89FB89208319A2EE89E2
:100CA000FF89408181E090E09C010C8C02C0220F02
:100CB000331F0A94E2F7422B4083EE89FF8940817B
:100CC0009C010D8C02C0220F331F0A94E2F7422BC5
:100CD0004083EE89FF8940819C010E8C02C0220F67
:100CE000331F0A94E2F7422B4083EE89FF8920816B
:100CF0000F8C02C0880F991F0A94E2F78095822317
:100D00008083DF91CF91FF90EF90DF90CF90089597
:100D100010924C0110924B0188EE93E0A0E0B0E0FD
:100D200080934D0190934E01A0934F01B0935001D9
:100D300080E191E090934A01809349018FEA91E02C
:100D400090935601809355018BE691E09093580162
:100D50008093570185EC90E090935A01809359015C
:100D600084EC90E090935C0180935B0180EC90E0D8
:100D700090935E0180935D0181EC90E0909360011F
:100D800080935F0182EC90E0909362018093610117
:100D900086EC90E0909364018093630184E08093FB
:100DA000650183E08093660187E08093670185E0B9
:100DB0008093680181E08093690108950E9435075E
:100DC0000E948800C3ECD5E00E94E7002097E1F381
:100DD0000E94C305F9CF1F920F920FB60F921124F4
:100DE0002F933F938F939F93AF93BF938091F40181
:100DF0009091F501A091F601B091F7013091F301C6
:100E000023E0230F2D3720F40196A11DB11D05C04D
:100E100026E8230F0296A11DB11D2093F3018093B4
:100E2000F4019093F501A093F601B093F70180913E
:100E3000F8019091F901A091FA01B091FB0101969E
:100E4000A11DB11D8093F8019093F901A093FA01BF
:100E5000B093FB01BF91AF919F918F913F912F91E3
:100E60000F900FBE0F901F901895789484B58260F4
:100E700084BD84B5816084BD85B5826085BD85B53E
:100E8000816085BDEEE6F0E0808181608083E1E8ED
:100E9000F0E0108280818260808380818160808325
:100EA000E0E8F0E0808181608083E1EBF0E0808128
:100EB00084608083E0EBF0E0808181608083EAE7FA
:100EC000F0E0808184608083808182608083808183
:100ED000816080838081806880831092C100089542
:100EE000DB018F939F930E94CD07BF91AF91A29F8B
:100EF000800D911DA39F900DB29F900D1124089518
:100F0000991B79E004C0991F961708F0961B881F5B
:100F10007A95C9F780950895A1E21A2EAA1BBB1BEA
:100F2000FD010DC0AA1FBB1FEE1FFF1FA217B307B5
:100F3000E407F50720F0A21BB30BE40BF50B661FCB
:100F4000771F881F991F1A9469F76095709580958F
:100F500090959B01AC01BD01CF010895052E97FB33
:100F60001EF400940E94C50757FD07D00E948C070D
:100F700007FC03D04EF40C94C5075095409530956E
:100F800021953F4F4F4F5F4F0895909580957095F5
:100F900061957F4F8F4F9F4F08950E94DE07A59F59
:100FA000900DB49F900DA49F800D911D1124089564
:100FB000EE0FFF1F0590F491E02D0994A29FB00160
:100FC000B39FC001A39F700D811D1124911DB29F7D
:0E0FD000700D811D1124911D0895F894FFCF1E
:100FDE0001000000FFFF526561647900000000000F
:0C0FEE004B05D103F70420050705400562
:00000001FF
