:100000000C9435000C945D000C945D000C945D0024
:100010000C945D000C945D000C945D000C945D00EC
:100020000C945D000C945D000C945D000C945D00DC
:100030000C945D000C945D000C945D000C945D00CC
:100040000C94A5030C945D000C9443020C9486025E
:100050000C945D000C945D000C945D000C945D00AC
:100060000C945D000C945D00420311241FBECFEF81
:10007000D8E0DEBFCDBF11E0A0E0B1E0E8EAF8E0F3
:1000800002C005900D92A031B107D9F721E0A0E19F
:10009000B1E001C01D92A73CB207E1F710E0CAE64B
:1000A000D0E004C02297FE010E944E04C836D1075A
:1000B000C9F70E9498030C9452040C94000040E885
:1000C00055E260E070E084E191E00C94C10284E1CB
:1000D00091E00E94B1011816190674F584E191E0CF
:1000E0000E94DA018A33910594F4C097409110017F
:1000F000509111016AE0649F9001659F300D1124B9
:10010000820F931F909311018093100108958337FC
:10011000910591F460911001709111017093130198
:10012000609312014AE050E084E191E00E9499015D
:1001300010921101109210010895CF92DF92EF9268
:10014000FF920F931F93CF93DF936C017A01EB0122
:10015000E60EF71E00E010E0CE15DF0561F06991B4
:10016000D601ED91FC910190F081E02DC601099539
:10017000080F191FF1CFC801DF91CF911F910F9187
:10018000FF90EF90DF90CF9008956115710581F099
:10019000DB010D900020E9F7AD0141505109461BEC
:1001A000570BDC01ED91FC910280F381E02D099465
:1001B00080E090E00895DC01ED91FC910190F081E8
:1001C000E02D09940F931F93CF93DF93EC016DE023
:1001D0000E94DB008C016AE0CE010E94DB00800FF0
:1001E000911FDF91CF911F910F9108958F929F9250
:1001F000AF92BF92CF92DF92EF92FF920F931F9335
:10020000CF93DF93CDB7DEB7A1970FB6F894DEBFDB
:100210000FBECDBF7C01C42EE52FCB01D22E19A27B
:1002200021E02D1510F02AE0D22E8E010F5D1F4F18
:100230008D2C912CA12CB12C6C2D7E2FA50194011D
:100240000E942A048C2DD29E80191124015011097C
:100250008A3014F4805D01C0895CF8018083211527
:1002600031054105510521F0C22EE32FCA01E4CF2B
:10027000B801C7010E94C500A1960FB6F894DEBF71
:100280000FBECDBFDF91CF911F910F91FF90EF90E7
:10029000DF90CF90BF90AF909F908F900895CF92B6
:1002A000DF92EF92FF920F931F93CF93DF93EC01B6
:1002B0006A017B012115310579F4E881F98101900A
:1002C000F081E02D642FDF91CF911F910F91FF906E
:1002D000EF90DF90CF9009942A303105E9F477FF51
:1002E0001AC06DE20E94DB008C0144275527BA0139
:1002F0004C195D096E097F092AE0CE010E94F600C3
:10030000800F911FDF91CF911F910F91FF90EF9080
:10031000DF90CF9008952AE0B701A601CE01DF91CA
:10032000CF911F910F91FF90EF90DF90CF900C94A1
:10033000F6000F931F93CF93DF93EC019A01AB016B
:10034000662757FD6095762F0E944F018C01CE01E4
:100350000E94E200800F911FDF91CF911F910F91BA
:100360000895FC0124853585F901E05CFF4F80810B
:100370009181329620813181821B930B8F73992753
:100380000895FC0184859585FC01E05CFF4F408168
:1003900051813296208131814217530741F00190FB
:1003A000F081E02DE80FF91F808190E008958FEF34
:1003B0009FEF0895FC0184859585FC01E05CFF4F6B
:1003C000408151813296208131814217530779F063
:1003D000A081B181A80FB91F8C91208131812F5F3D
:1003E0003F4F2F7333273183208390E008958FEFA1
:1003F0009FEF0895FC0181A1882329F0A489B58984
:100400008C9186FFFBCF11A20895CF93DF93FC015F
:1004100026853785D901A05CBF4F8D919C9111979E
:1004200001968F739927E901CE5BDF4F488159818F
:1004300084179507D9F30D90BC91A02DA20FB31F7F
:100440006C93A685B785A05CBF4F11969C938E9345
:10045000A689B7892C9181E090E0078C02C0880FB3
:10046000991F0A94E2F7282B2C9381E081A304883A
:10047000F589E02D80818064808381E090E0DF91C8
:10048000CF91089508951F920F920FB60F921124E5
:100490002F933F934F938F939F93EF93FF9380916D
:1004A000C00082FD1CC04091C6008091BA019091AD
:1004B000BB0101968F7399272091BC013091BD013A
:1004C0008217930771F0E091BA01F091BB01E658F1
:1004D000FE4F40839093BB018093BA0102C080918C
:1004E000C600FF91EF919F918F914F913F912F9176
:1004F0000F900FBE0F901F90189584E191E00E941D
:10050000B101892B11F00C94420208951F920F92B1
:100510000FB60F9211242F933F938F939F93EF93D6
:10052000FF9320917601309177018091780190912D
:1005300079012817390731F48091C1008F7D8093AC
:10054000C10014C0E0917801F0917901EA5CFE4F9E
:100550002081809178019091790101968F7399277C
:1005600090937901809378012093C600FF91EF91D9
:100570009F918F913F912F910F900FBE0F901F90E1
:100580001895CF92DF92EF92FF92CF93DF93EC0119
:100590006A017B01411581EE580761057105F9F08B
:1005A000EC89FD8981E090E008A002C0880F991FC6
:1005B0000A94E2F7808360E079E08DE390E0A701A0
:1005C00096010E942A04215031094109510956958A
:1005D000479537952795211580E1380798F0EC89E4
:1005E000FD89108260E874E88EE190E0A701960131
:1005F0000E942A0421503109410951095695479515
:1006000037952795E889F9893083EA89FB89208322
:1006100019A2EE89FF89408181E090E09C010C8C59
:1006200002C0220F331F0A94E2F7422B4083EE8967
:10063000FF8940819C010D8C02C0220F331F0A9458
:10064000E2F7422B4083EE89FF8940819C010E8CAA
:1006500002C0220F331F0A94E2F7422B4083EE8937
:10066000FF8920810F8C02C0880F991F0A94E2F73E
:10067000809582238083DF91CF91FF90EF90DF9070
:10068000CF900895109217011092160188EE93E012
:10069000A0E0B0E08093180190931901A0931A0193
:1006A000B0931B0184E091E09093150180931401B5
:1006B0008AE791E0909321018093200186E391E005
:1006C000909323018093220185EC90E09093250183
:1006D0008093240184EC90E090932701809326017D
:1006E00080EC90E0909329018093280181EC90E0C8
:1006F00090932B0180932A0182EC90E090932D013E
:1007000080932C0186EC90E090932F0180932E0132
:1007100084E08093300183E08093310187E080930F
:10072000320185E08093330181E0809334010895A4
:100730000E94EF030E945F00CDE7D2E00E946700B5
:100740002097E1F30E947D02F9CF1F920F920FB61E
:100750000F9211242F933F938F939F93AF93BF9347
:100760008091BF019091C001A091C101B091C201DF
:100770003091BE0123E0230F2D3720F40196A11DF7
:10078000B11D05C026E8230F0296A11DB11D2093BF
:10079000BE018093BF019093C001A093C101B093AB
:1007A000C2018091C3019091C401A091C501B09193
:1007B000C6010196A11DB11D8093C3019093C40190
:1007C000A093C501B093C601BF91AF919F918F9146
:1007D0003F912F910F900FBE0F901F901895789416
:1007E00084B5826084BD84B5816084BD85B5826036
:1007F00085BD85B5816085BDEEE6F0E080818160D4
:100800008083E1E8F0E010828081826080838081D3
:1008100081608083E0E8F0E0808181608083E1EBAB
:10082000F0E0808184608083E0EBF0E08081816093
:100830008083EAE7F0E08081846080838081826049
:100840008083808181608083808180688083109232
:10085000C1000895A1E21A2EAA1BBB1BFD010DC009
:10086000AA1FBB1FEE1FFF1FA217B307E407F50760
:1008700020F0A21BB30BE40BF50B661F771F881F3C
:10088000991F1A9469F760957095809590959B01D2
:10089000AC01BD01CF010895EE0FFF1F0590F4914B
:0808A000E02D0994F894FFCF4C
:1008A8000000000005029D00B101DA01C101FA0152
:00000001FF
